{
  "contractName": "ELToken",
  "abi": [
    {
      "constant": true,
      "inputs": [],
      "name": "name",
      "outputs": [
        {
          "name": "",
          "type": "string"
        }
      ],
      "payable": false,
      "stateMutability": "view",
      "type": "function",
      "signature": "0x06fdde03"
    },
    {
      "constant": false,
      "inputs": [
        {
          "name": "spender",
          "type": "address"
        },
        {
          "name": "value",
          "type": "uint256"
        }
      ],
      "name": "approve",
      "outputs": [
        {
          "name": "",
          "type": "bool"
        }
      ],
      "payable": false,
      "stateMutability": "nonpayable",
      "type": "function",
      "signature": "0x095ea7b3"
    },
    {
      "constant": true,
      "inputs": [],
      "name": "totalSupply",
      "outputs": [
        {
          "name": "",
          "type": "uint256"
        }
      ],
      "payable": false,
      "stateMutability": "view",
      "type": "function",
      "signature": "0x18160ddd"
    },
    {
      "constant": false,
      "inputs": [
        {
          "name": "from",
          "type": "address"
        },
        {
          "name": "to",
          "type": "address"
        },
        {
          "name": "value",
          "type": "uint256"
        }
      ],
      "name": "transferFrom",
      "outputs": [
        {
          "name": "",
          "type": "bool"
        }
      ],
      "payable": false,
      "stateMutability": "nonpayable",
      "type": "function",
      "signature": "0x23b872dd"
    },
    {
      "constant": true,
      "inputs": [],
      "name": "decimals",
      "outputs": [
        {
          "name": "",
          "type": "uint8"
        }
      ],
      "payable": false,
      "stateMutability": "view",
      "type": "function",
      "signature": "0x313ce567"
    },
    {
      "constant": false,
      "inputs": [
        {
          "name": "spender",
          "type": "address"
        },
        {
          "name": "addedValue",
          "type": "uint256"
        }
      ],
      "name": "increaseAllowance",
      "outputs": [
        {
          "name": "success",
          "type": "bool"
        }
      ],
      "payable": false,
      "stateMutability": "nonpayable",
      "type": "function",
      "signature": "0x39509351"
    },
    {
      "constant": false,
      "inputs": [],
      "name": "unpause",
      "outputs": [],
      "payable": false,
      "stateMutability": "nonpayable",
      "type": "function",
      "signature": "0x3f4ba83a"
    },
    {
      "constant": false,
      "inputs": [
        {
          "name": "to",
          "type": "address"
        },
        {
          "name": "value",
          "type": "uint256"
        }
      ],
      "name": "mint",
      "outputs": [
        {
          "name": "",
          "type": "bool"
        }
      ],
      "payable": false,
      "stateMutability": "nonpayable",
      "type": "function",
      "signature": "0x40c10f19"
    },
    {
      "constant": false,
      "inputs": [
        {
          "name": "value",
          "type": "uint256"
        }
      ],
      "name": "burn",
      "outputs": [],
      "payable": false,
      "stateMutability": "nonpayable",
      "type": "function",
      "signature": "0x42966c68"
    },
    {
      "constant": true,
      "inputs": [
        {
          "name": "account",
          "type": "address"
        }
      ],
      "name": "isPauser",
      "outputs": [
        {
          "name": "",
          "type": "bool"
        }
      ],
      "payable": false,
      "stateMutability": "view",
      "type": "function",
      "signature": "0x46fbf68e"
    },
    {
      "constant": true,
      "inputs": [],
      "name": "paused",
      "outputs": [
        {
          "name": "",
          "type": "bool"
        }
      ],
      "payable": false,
      "stateMutability": "view",
      "type": "function",
      "signature": "0x5c975abb"
    },
    {
      "constant": false,
      "inputs": [],
      "name": "renouncePauser",
      "outputs": [],
      "payable": false,
      "stateMutability": "nonpayable",
      "type": "function",
      "signature": "0x6ef8d66d"
    },
    {
      "constant": true,
      "inputs": [
        {
          "name": "owner",
          "type": "address"
        }
      ],
      "name": "balanceOf",
      "outputs": [
        {
          "name": "",
          "type": "uint256"
        }
      ],
      "payable": false,
      "stateMutability": "view",
      "type": "function",
      "signature": "0x70a08231"
    },
    {
      "constant": false,
      "inputs": [],
      "name": "renounceOwnership",
      "outputs": [],
      "payable": false,
      "stateMutability": "nonpayable",
      "type": "function",
      "signature": "0x715018a6"
    },
    {
      "constant": false,
      "inputs": [
        {
          "name": "from",
          "type": "address"
        },
        {
          "name": "value",
          "type": "uint256"
        }
      ],
      "name": "burnFrom",
      "outputs": [],
      "payable": false,
      "stateMutability": "nonpayable",
      "type": "function",
      "signature": "0x79cc6790"
    },
    {
      "constant": false,
      "inputs": [
        {
          "name": "account",
          "type": "address"
        }
      ],
      "name": "addPauser",
      "outputs": [],
      "payable": false,
      "stateMutability": "nonpayable",
      "type": "function",
      "signature": "0x82dc1ec4"
    },
    {
      "constant": false,
      "inputs": [],
      "name": "pause",
      "outputs": [],
      "payable": false,
      "stateMutability": "nonpayable",
      "type": "function",
      "signature": "0x8456cb59"
    },
    {
      "constant": true,
      "inputs": [],
      "name": "owner",
      "outputs": [
        {
          "name": "",
          "type": "address"
        }
      ],
      "payable": false,
      "stateMutability": "view",
      "type": "function",
      "signature": "0x8da5cb5b"
    },
    {
      "constant": true,
      "inputs": [],
      "name": "isOwner",
      "outputs": [
        {
          "name": "",
          "type": "bool"
        }
      ],
      "payable": false,
      "stateMutability": "view",
      "type": "function",
      "signature": "0x8f32d59b"
    },
    {
      "constant": true,
      "inputs": [],
      "name": "symbol",
      "outputs": [
        {
          "name": "",
          "type": "string"
        }
      ],
      "payable": false,
      "stateMutability": "view",
      "type": "function",
      "signature": "0x95d89b41"
    },
    {
      "constant": false,
      "inputs": [
        {
          "name": "account",
          "type": "address"
        }
      ],
      "name": "addMinter",
      "outputs": [],
      "payable": false,
      "stateMutability": "nonpayable",
      "type": "function",
      "signature": "0x983b2d56"
    },
    {
      "constant": false,
      "inputs": [],
      "name": "renounceMinter",
      "outputs": [],
      "payable": false,
      "stateMutability": "nonpayable",
      "type": "function",
      "signature": "0x98650275"
    },
    {
      "constant": false,
      "inputs": [
        {
          "name": "spender",
          "type": "address"
        },
        {
          "name": "subtractedValue",
          "type": "uint256"
        }
      ],
      "name": "decreaseAllowance",
      "outputs": [
        {
          "name": "success",
          "type": "bool"
        }
      ],
      "payable": false,
      "stateMutability": "nonpayable",
      "type": "function",
      "signature": "0xa457c2d7"
    },
    {
      "constant": false,
      "inputs": [
        {
          "name": "to",
          "type": "address"
        },
        {
          "name": "value",
          "type": "uint256"
        }
      ],
      "name": "transfer",
      "outputs": [
        {
          "name": "",
          "type": "bool"
        }
      ],
      "payable": false,
      "stateMutability": "nonpayable",
      "type": "function",
      "signature": "0xa9059cbb"
    },
    {
      "constant": true,
      "inputs": [
        {
          "name": "account",
          "type": "address"
        }
      ],
      "name": "isMinter",
      "outputs": [
        {
          "name": "",
          "type": "bool"
        }
      ],
      "payable": false,
      "stateMutability": "view",
      "type": "function",
      "signature": "0xaa271e1a"
    },
    {
      "constant": true,
      "inputs": [
        {
          "name": "owner",
          "type": "address"
        },
        {
          "name": "spender",
          "type": "address"
        }
      ],
      "name": "allowance",
      "outputs": [
        {
          "name": "",
          "type": "uint256"
        }
      ],
      "payable": false,
      "stateMutability": "view",
      "type": "function",
      "signature": "0xdd62ed3e"
    },
    {
      "constant": false,
      "inputs": [
        {
          "name": "newOwner",
          "type": "address"
        }
      ],
      "name": "transferOwnership",
      "outputs": [],
      "payable": false,
      "stateMutability": "nonpayable",
      "type": "function",
      "signature": "0xf2fde38b"
    },
    {
      "inputs": [
        {
          "name": "name",
          "type": "string"
        },
        {
          "name": "symbol",
          "type": "string"
        },
        {
          "name": "decimals",
          "type": "uint8"
        },
        {
          "name": "totalSupply",
          "type": "uint256"
        }
      ],
      "payable": false,
      "stateMutability": "nonpayable",
      "type": "constructor",
      "signature": "constructor"
    },
    {
      "anonymous": false,
      "inputs": [
        {
          "indexed": true,
          "name": "previousOwner",
          "type": "address"
        },
        {
          "indexed": true,
          "name": "newOwner",
          "type": "address"
        }
      ],
      "name": "OwnershipTransferred",
      "type": "event",
      "signature": "0x8be0079c531659141344cd1fd0a4f28419497f9722a3daafe3b4186f6b6457e0"
    },
    {
      "anonymous": false,
      "inputs": [
        {
          "indexed": false,
          "name": "account",
          "type": "address"
        }
      ],
      "name": "Paused",
      "type": "event",
      "signature": "0x62e78cea01bee320cd4e420270b5ea74000d11b0c9f74754ebdbfc544b05a258"
    },
    {
      "anonymous": false,
      "inputs": [
        {
          "indexed": false,
          "name": "account",
          "type": "address"
        }
      ],
      "name": "Unpaused",
      "type": "event",
      "signature": "0x5db9ee0a495bf2e6ff9c91a7834c1ba4fdd244a5e8aa4e537bd38aeae4b073aa"
    },
    {
      "anonymous": false,
      "inputs": [
        {
          "indexed": true,
          "name": "account",
          "type": "address"
        }
      ],
      "name": "PauserAdded",
      "type": "event",
      "signature": "0x6719d08c1888103bea251a4ed56406bd0c3e69723c8a1686e017e7bbe159b6f8"
    },
    {
      "anonymous": false,
      "inputs": [
        {
          "indexed": true,
          "name": "account",
          "type": "address"
        }
      ],
      "name": "PauserRemoved",
      "type": "event",
      "signature": "0xcd265ebaf09df2871cc7bd4133404a235ba12eff2041bb89d9c714a2621c7c7e"
    },
    {
      "anonymous": false,
      "inputs": [
        {
          "indexed": true,
          "name": "account",
          "type": "address"
        }
      ],
      "name": "MinterAdded",
      "type": "event",
      "signature": "0x6ae172837ea30b801fbfcdd4108aa1d5bf8ff775444fd70256b44e6bf3dfc3f6"
    },
    {
      "anonymous": false,
      "inputs": [
        {
          "indexed": true,
          "name": "account",
          "type": "address"
        }
      ],
      "name": "MinterRemoved",
      "type": "event",
      "signature": "0xe94479a9f7e1952cc78f2d6baab678adc1b772d936c6583def489e524cb66692"
    },
    {
      "anonymous": false,
      "inputs": [
        {
          "indexed": true,
          "name": "from",
          "type": "address"
        },
        {
          "indexed": true,
          "name": "to",
          "type": "address"
        },
        {
          "indexed": false,
          "name": "value",
          "type": "uint256"
        }
      ],
      "name": "Transfer",
      "type": "event",
      "signature": "0xddf252ad1be2c89b69c2b068fc378daa952ba7f163c4a11628f55a4df523b3ef"
    },
    {
      "anonymous": false,
      "inputs": [
        {
          "indexed": true,
          "name": "owner",
          "type": "address"
        },
        {
          "indexed": true,
          "name": "spender",
          "type": "address"
        },
        {
          "indexed": false,
          "name": "value",
          "type": "uint256"
        }
      ],
      "name": "Approval",
      "type": "event",
      "signature": "0x8c5be1e5ebec7d5bd14f71427d1e84f3dd0314c0f7b2291e5b200ac8c7c3b925"
    }
  ],
  "bytecode": "0x60806040523480156200001157600080fd5b506040516200176138038062001761833981018060405260808110156200003757600080fd5b8101908080516401000000008111156200005057600080fd5b820160208101848111156200006457600080fd5b81516401000000008111828201871017156200007f57600080fd5b505092919060200180516401000000008111156200009c57600080fd5b82016020810184811115620000b057600080fd5b8151640100000000811182820187101715620000cb57600080fd5b50506020808301516040909301518651929550929350859185918591620000f9916000919086019062000422565b5081516200010f90600190602085019062000422565b506002805460ff191660ff92909216919091179055506200013b9050336401000000006200020c810204565b6200014f336401000000006200025e810204565b60088054600160a860020a0319166101003381029190911791829055604051600160a060020a039190920416906000907f8be0079c531659141344cd1fd0a4f28419497f9722a3daafe3b4186f6b6457e0908290a3620001d3620001bb640100000000620002b0810204565b60ff8416600a0a8302640100000000620002c5810204565b6040805160ff8416600a0a8302815290513391600091600080516020620017418339815191529181900360200190a350505050620004c4565b62000227600682640100000000620011d36200037582021704565b604051600160a060020a038216907f6ae172837ea30b801fbfcdd4108aa1d5bf8ff775444fd70256b44e6bf3dfc3f690600090a250565b62000279600782640100000000620011d36200037582021704565b604051600160a060020a038216907f6719d08c1888103bea251a4ed56406bd0c3e69723c8a1686e017e7bbe159b6f890600090a250565b6008546101009004600160a060020a03165b90565b600160a060020a0382161515620002db57600080fd5b600554620002f8908264010000000062001175620003d082021704565b600555600160a060020a0382166000908152600360205260409020546200032e908264010000000062001175620003d082021704565b600160a060020a0383166000818152600360209081526040808320949094558351858152935192939192600080516020620017418339815191529281900390910190a35050565b600160a060020a03811615156200038b57600080fd5b620003a08282640100000000620003ea810204565b15620003ab57600080fd5b600160a060020a0316600090815260209190915260409020805460ff19166001179055565b600082820183811015620003e357600080fd5b9392505050565b6000600160a060020a03821615156200040257600080fd5b50600160a060020a03166000908152602091909152604090205460ff1690565b828054600181600116156101000203166002900490600052602060002090601f016020900481019282601f106200046557805160ff191683800117855562000495565b8280016001018555821562000495579182015b828111156200049557825182559160200191906001019062000478565b50620004a3929150620004a7565b5090565b620002c291905b80821115620004a35760008155600101620004ae565b61126d80620004d46000396000f3fe60806040526004361061015e5763ffffffff7c010000000000000000000000000000000000000000000000000000000060003504166306fdde038114610163578063095ea7b3146101ed57806318160ddd1461023a57806323b872dd14610261578063313ce567146102a457806339509351146102cf5780633f4ba83a1461030857806340c10f191461031f57806342966c681461035857806346fbf68e146103825780635c975abb146103b55780636ef8d66d146103ca57806370a08231146103df578063715018a61461041257806379cc67901461042757806382dc1ec4146104605780638456cb59146104935780638da5cb5b146104a85780638f32d59b146104d957806395d89b41146104ee578063983b2d56146105035780639865027514610536578063a457c2d71461054b578063a9059cbb14610584578063aa271e1a146105bd578063dd62ed3e146105f0578063f2fde38b1461062b575b600080fd5b34801561016f57600080fd5b5061017861065e565b6040805160208082528351818301528351919283929083019185019080838360005b838110156101b257818101518382015260200161019a565b50505050905090810190601f1680156101df5780820380516001836020036101000a031916815260200191505b509250505060405180910390f35b3480156101f957600080fd5b506102266004803603604081101561021057600080fd5b50600160a060020a0381351690602001356106f4565b604080519115158252519081900360200190f35b34801561024657600080fd5b5061024f610718565b60408051918252519081900360200190f35b34801561026d57600080fd5b506102266004803603606081101561028457600080fd5b50600160a060020a0381358116916020810135909116906040013561071e565b3480156102b057600080fd5b506102b9610744565b6040805160ff9092168252519081900360200190f35b3480156102db57600080fd5b50610226600480360360408110156102f257600080fd5b50600160a060020a03813516906020013561074d565b34801561031457600080fd5b5061031d61076a565b005b34801561032b57600080fd5b506102266004803603604081101561034257600080fd5b50600160a060020a0381351690602001356107ce565b34801561036457600080fd5b5061031d6004803603602081101561037b57600080fd5b50356107f7565b34801561038e57600080fd5b50610226600480360360208110156103a557600080fd5b5035600160a060020a0316610804565b3480156103c157600080fd5b5061022661081d565b3480156103d657600080fd5b5061031d610826565b3480156103eb57600080fd5b5061024f6004803603602081101561040257600080fd5b5035600160a060020a0316610831565b34801561041e57600080fd5b5061031d61084c565b34801561043357600080fd5b5061031d6004803603604081101561044a57600080fd5b50600160a060020a0381351690602001356108bc565b34801561046c57600080fd5b5061031d6004803603602081101561048357600080fd5b5035600160a060020a03166108ca565b34801561049f57600080fd5b5061031d6108e7565b3480156104b457600080fd5b506104bd61094d565b60408051600160a060020a039092168252519081900360200190f35b3480156104e557600080fd5b50610226610961565b3480156104fa57600080fd5b50610178610977565b34801561050f57600080fd5b5061031d6004803603602081101561052657600080fd5b5035600160a060020a03166109d7565b34801561054257600080fd5b5061031d6109f4565b34801561055757600080fd5b506102266004803603604081101561056e57600080fd5b50600160a060020a0381351690602001356109fd565b34801561059057600080fd5b50610226600480360360408110156105a757600080fd5b50600160a060020a038135169060200135610a1a565b3480156105c957600080fd5b50610226600480360360208110156105e057600080fd5b5035600160a060020a0316610a37565b3480156105fc57600080fd5b5061024f6004803603604081101561061357600080fd5b50600160a060020a0381358116916020013516610a4a565b34801561063757600080fd5b5061031d6004803603602081101561064e57600080fd5b5035600160a060020a0316610a75565b60008054604080516020601f60026000196101006001881615020190951694909404938401819004810282018101909252828152606093909290918301828280156106ea5780601f106106bf576101008083540402835291602001916106ea565b820191906000526020600020905b8154815290600101906020018083116106cd57829003601f168201915b5050505050905090565b60085460009060ff161561070757600080fd5b6107118383610a91565b9392505050565b60055490565b60085460009060ff161561073157600080fd5b61073c848484610afd565b949350505050565b60025460ff1690565b60085460009060ff161561076057600080fd5b6107118383610bb4565b61077333610804565b151561077e57600080fd5b60085460ff16151561078f57600080fd5b6008805460ff191690556040805133815290517f5db9ee0a495bf2e6ff9c91a7834c1ba4fdd244a5e8aa4e537bd38aeae4b073aa9181900360200190a1565b60006107d933610a37565b15156107e457600080fd5b6107ee8383610c52565b50600192915050565b6108013382610cfe565b50565b600061081760078363ffffffff610da916565b92915050565b60085460ff1690565b61082f33610de0565b565b600160a060020a031660009081526003602052604090205490565b610854610961565b151561085f57600080fd5b6008546040516000916101009004600160a060020a0316907f8be0079c531659141344cd1fd0a4f28419497f9722a3daafe3b4186f6b6457e0908390a36008805474ffffffffffffffffffffffffffffffffffffffff0019169055565b6108c68282610e28565b5050565b6108d333610804565b15156108de57600080fd5b61080181610ed8565b6108f033610804565b15156108fb57600080fd5b60085460ff161561090b57600080fd5b6008805460ff191660011790556040805133815290517f62e78cea01bee320cd4e420270b5ea74000d11b0c9f74754ebdbfc544b05a2589181900360200190a1565b6008546101009004600160a060020a031690565b6008546101009004600160a060020a0316331490565b60018054604080516020601f600260001961010087891615020190951694909404938401819004810282018101909252828152606093909290918301828280156106ea5780601f106106bf576101008083540402835291602001916106ea565b6109e033610a37565b15156109eb57600080fd5b61080181610f20565b61082f33610f68565b60085460009060ff1615610a1057600080fd5b6107118383610fb0565b60085460009060ff1615610a2d57600080fd5b6107118383610ffb565b600061081760068363ffffffff610da916565b600160a060020a03918216600090815260046020908152604080832093909416825291909152205490565b610a7d610961565b1515610a8857600080fd5b61080181611008565b6000600160a060020a0383161515610aa857600080fd5b336000818152600460209081526040808320600160a060020a0388168085529083529281902086905580518681529051929392600080516020611222833981519152929181900390910190a350600192915050565b600160a060020a0383166000908152600460209081526040808320338452909152812054610b31908363ffffffff61109116565b600160a060020a0385166000908152600460209081526040808320338452909152902055610b608484846110a6565b600160a060020a038416600081815260046020908152604080832033808552908352928190205481519081529051929392600080516020611222833981519152929181900390910190a35060019392505050565b6000600160a060020a0383161515610bcb57600080fd5b336000908152600460209081526040808320600160a060020a0387168452909152902054610bff908363ffffffff61117516565b336000818152600460209081526040808320600160a060020a038916808552908352928190208590558051948552519193600080516020611222833981519152929081900390910190a350600192915050565b600160a060020a0382161515610c6757600080fd5b600554610c7a908263ffffffff61117516565b600555600160a060020a038216600090815260036020526040902054610ca6908263ffffffff61117516565b600160a060020a03831660008181526003602090815260408083209490945583518581529351929391927fddf252ad1be2c89b69c2b068fc378daa952ba7f163c4a11628f55a4df523b3ef9281900390910190a35050565b600160a060020a0382161515610d1357600080fd5b600554610d26908263ffffffff61109116565b600555600160a060020a038216600090815260036020526040902054610d52908263ffffffff61109116565b600160a060020a0383166000818152600360209081526040808320949094558351858152935191937fddf252ad1be2c89b69c2b068fc378daa952ba7f163c4a11628f55a4df523b3ef929081900390910190a35050565b6000600160a060020a0382161515610dc057600080fd5b50600160a060020a03166000908152602091909152604090205460ff1690565b610df160078263ffffffff61118716565b604051600160a060020a038216907fcd265ebaf09df2871cc7bd4133404a235ba12eff2041bb89d9c714a2621c7c7e90600090a250565b600160a060020a0382166000908152600460209081526040808320338452909152902054610e5c908263ffffffff61109116565b600160a060020a0383166000908152600460209081526040808320338452909152902055610e8a8282610cfe565b600160a060020a038216600081815260046020908152604080832033808552908352928190205481519081529051929392600080516020611222833981519152929181900390910190a35050565b610ee960078263ffffffff6111d316565b604051600160a060020a038216907f6719d08c1888103bea251a4ed56406bd0c3e69723c8a1686e017e7bbe159b6f890600090a250565b610f3160068263ffffffff6111d316565b604051600160a060020a038216907f6ae172837ea30b801fbfcdd4108aa1d5bf8ff775444fd70256b44e6bf3dfc3f690600090a250565b610f7960068263ffffffff61118716565b604051600160a060020a038216907fe94479a9f7e1952cc78f2d6baab678adc1b772d936c6583def489e524cb6669290600090a250565b6000600160a060020a0383161515610fc757600080fd5b336000908152600460209081526040808320600160a060020a0387168452909152902054610bff908363ffffffff61109116565b60006107ee3384846110a6565b600160a060020a038116151561101d57600080fd5b600854604051600160a060020a0380841692610100900416907f8be0079c531659141344cd1fd0a4f28419497f9722a3daafe3b4186f6b6457e090600090a360088054600160a060020a039092166101000274ffffffffffffffffffffffffffffffffffffffff0019909216919091179055565b6000828211156110a057600080fd5b50900390565b600160a060020a03821615156110bb57600080fd5b600160a060020a0383166000908152600360205260409020546110e4908263ffffffff61109116565b600160a060020a038085166000908152600360205260408082209390935590841681522054611119908263ffffffff61117516565b600160a060020a0380841660008181526003602090815260409182902094909455805185815290519193928716927fddf252ad1be2c89b69c2b068fc378daa952ba7f163c4a11628f55a4df523b3ef92918290030190a3505050565b60008282018381101561071157600080fd5b600160a060020a038116151561119c57600080fd5b6111a68282610da9565b15156111b157600080fd5b600160a060020a0316600090815260209190915260409020805460ff19169055565b600160a060020a03811615156111e857600080fd5b6111f28282610da9565b156111fc57600080fd5b600160a060020a0316600090815260209190915260409020805460ff1916600117905556fe8c5be1e5ebec7d5bd14f71427d1e84f3dd0314c0f7b2291e5b200ac8c7c3b925a165627a7a72305820b328391eabc888cffa9fa71183f273eb92c31583e28b34e88ed078fb89a137c30029ddf252ad1be2c89b69c2b068fc378daa952ba7f163c4a11628f55a4df523b3ef",
  "source": "pragma solidity ^0.5.0;\n\nimport \"openzeppelin-solidity/contracts/token/ERC20/ERC20Mintable.sol\";\nimport \"openzeppelin-solidity/contracts/token/ERC20/ERC20Burnable.sol\";\nimport \"openzeppelin-solidity/contracts/token/ERC20/ERC20Pausable.sol\";\nimport \"openzeppelin-solidity/contracts/token/ERC20/ERC20Detailed.sol\";\nimport \"openzeppelin-solidity/contracts/ownership/Ownable.sol\";\n\ncontract ELToken is ERC20Detailed, ERC20Burnable, ERC20Mintable, ERC20Pausable, Ownable {\n\n  // bytes32 : 32 letters (ascii): each character is a byte.\n  //mapping (address => mapping (bytes32 => uint256)) internal buildingtoken;\n\n  constructor(string memory name, string memory symbol, uint8 decimals, uint256 totalSupply) ERC20Detailed(name, symbol, decimals) public {\n    _mint(owner(), totalSupply * 10 ** uint(decimals));\n    emit Transfer(address(0), msg.sender, totalSupply * 10 ** uint(decimals)); // ERC20Basic.sol\n  }\n}\n",
  "sourcePath": "/Users/aprilsblue/Desktop/dev/BlockChain/elysia/token/contracts/ELToken.sol",
  "compiler": {
    "name": "solc",
    "version": "0.5.0+commit.1d4f565a.Emscripten.clang"
  },
  "schemaVersion": "3.0.2",
  "updatedAt": "2019-04-21T11:02:37.138Z",
  "devdoc": {
    "methods": {
      "allowance(address,address)": {
        "details": "Function to check the amount of tokens that an owner allowed to a spender.",
        "params": {
          "owner": "address The address which owns the funds.",
          "spender": "address The address which will spend the funds."
        },
        "return": "A uint256 specifying the amount of tokens still available for the spender."
      },
      "balanceOf(address)": {
        "details": "Gets the balance of the specified address.",
        "params": {
          "owner": "The address to query the balance of."
        },
        "return": "An uint256 representing the amount owned by the passed address."
      },
      "burn(uint256)": {
        "details": "Burns a specific amount of tokens.",
        "params": {
          "value": "The amount of token to be burned."
        }
      },
      "burnFrom(address,uint256)": {
        "details": "Burns a specific amount of tokens from the target address and decrements allowance",
        "params": {
          "from": "address The address which you want to send tokens from",
          "value": "uint256 The amount of token to be burned"
        }
      },
      "decimals()": {
        "return": "the number of decimals of the token."
      },
      "isOwner()": {
        "return": "true if `msg.sender` is the owner of the contract."
      },
      "mint(address,uint256)": {
        "details": "Function to mint tokens",
        "params": {
          "to": "The address that will receive the minted tokens.",
          "value": "The amount of tokens to mint."
        },
        "return": "A boolean that indicates if the operation was successful."
      },
      "name()": {
        "return": "the name of the token."
      },
      "owner()": {
        "return": "the address of the owner."
      },
      "pause()": {
        "details": "called by the owner to pause, triggers stopped state"
      },
      "paused()": {
        "return": "true if the contract is paused, false otherwise."
      },
      "renounceOwnership()": {
        "details": "Allows the current owner to relinquish control of the contract."
      },
      "symbol()": {
        "return": "the symbol of the token."
      },
      "totalSupply()": {
        "details": "Total number of tokens in existence"
      },
      "transferOwnership(address)": {
        "details": "Allows the current owner to transfer control of the contract to a newOwner.",
        "params": {
          "newOwner": "The address to transfer ownership to."
        }
      },
      "unpause()": {
        "details": "called by the owner to unpause, returns to normal state"
      }
    }
  },
  "userdoc": {
    "methods": {
      "renounceOwnership()": {
        "notice": "Renouncing to ownership will leave the contract without an owner. It will not be possible to call the functions with the `onlyOwner` modifier anymore."
      }
    }
  }
}